:10000000001400205909000000000000000000005A
:1000100000000000000000000000000000000000E0
:1000200000000000000000000000000000000000D0
:100030000000000000000000000000008905000032
:100040008D05000000000000B505000091060000CD
:1000500000000000000000000000000000000000A0
:100060000000000000000000002934D0012300221D
:1000700010B488422CD301242407A14204D2814227
:1000800002D209011B01F8E7E400A14204D2814237
:1000900002D249005B00F8E7884201D3401A1A43B4
:1000A0004C08A04202D3001B5C0822438C08A042EB
:1000B00002D3001B9C082243CC08A04202D3001BA1
:1000C000DC082243002803D01B0901D00909E3E71B
:1000D000101C10BC7047002801D00020C04307B49A
:1000E000024802A14018029003BDC046D90000009A
:1000F0000029F0D003B5FFF7B9FF0EBC4243891ABF
:100100001847C046002941D010B4041C4C40A446F6
:1001100001230022002900D54942002800D5404291
:1001200088422CD301242407A14204D2814202D266
:1001300009011B01F8E7E400A14204D2814202D286
:1001400049005B00F8E7884201D3401A1A434C0883
:10015000A04202D3001B5C0822438C08A04202D3B9
:10016000001B9C082243CC08A04202D3001BDC08E1
:100170002243002803D01B0901D00909E3E7101C22
:100180006446002C00D5404210BC7047002806D0C1
:1001900003DB0020C043400801E08020000607B4D4
:1001A000024802A14018029003BDC0461900000099
:1001B0000029EBD003B5FFF7A7FF0EBC4243891A15
:1001C0001847C0467047C0468446101C62468C469D
:1001D000191C634600E0C0461FB500F0FBF800287C
:1001E00001D40021C8421FBD10B500F02BF84042D9
:1001F000013010BD10B500F0EDF8002801DB002043
:1002000010BD012010BDC04610B500F0E3F8002875
:1002100001DD002010BD012010BDC04610B500F06A
:100220005BF8002801DC002010BD012010BDC04695
:1002300010B500F051F8002801DA002010BD0120AF
:1002400010BDC046F0B55F4656464D464446F0B434
:100250000D1C041C8046E80F814618030F03000B99
:100260003F0B83B084461B48009749005E00DF0FB8
:10027000490D9246760DBB4681420CD01548864208
:1002800010D00120B14215D003B03CBC9046994635
:10029000A246AB46F0BD009F01202743F4D10D4894
:1002A0008642EED1604602430120002AECD10120B3
:1002B000B142E9D1009B6345E6D1D045E4D1D945AF
:1002C00006D00029E0D11C43201C441EA041DBE7DE
:1002D0000020D9E7FF070000F0B55F4656464D46BF
:1002E0004446F0B4CD0FDE0FAC461D032D0BB146D6
:1002F000374E0F034C00AB465D0080463F0B640D4C
:1003000092466D0DB44232D0314EB54235D0002CFC
:100310000ED1384341424141081C002D0BD0002929
:1003200019D1CC452DD0654668420123184318E009
:10033000002DF6D1281C59460A4353425341002848
:1003400006D1002BEDD0634658420123184308E044
:100350000020002B05D14A46504250414042012323
:1003600018433CBC90469946A246AB46F0BD3E1CA5
:100370000643C9D002204042F3E75E461643C6D08A
:10038000F8E7AC4207DC0BDA61464842484140429C
:1003900001231843E5E76646704201231843E0E76E
:1003A0005F450AD80ED000205F45DAD26546684224
:1003B0006841404201231843D3E76246504201237B
:1003C0001843CEE7D045F8D80020D045EED3C8E793
:1003D000FF070000F0B556464D4644465F46F0B470
:1003E0000D1C83B0041C0190E80F814618030F0315
:1003F000000B3F0B84463548009749005E00DF0F35
:10040000490D9246760DB846814234D02F48864237
:1004100036D0002918D0002E1FD1341C67463A432D
:1004200053425341002C1FD00020002B05D14246DF
:100430005042504140420123184303B03CBC904617
:100440009946A246AB46F0BD009804436042604125
:10045000041C002EE2D00028E9D1C14515D04F463A
:10046000784201231843E8E7002BF6D04B46584268
:1004700001231843E1E7009F02202743DDD1C5E7B0
:10048000674602201743D8D1C3E7B14204DD4A468C
:10049000504201231843D0E7B14207DB0098604582
:1004A000E4D80AD0009F00206745C6D24F46784264
:1004B0007841404201231843BFE7019A5245D5D8FD
:1004C000019A00205245F1D3B7E7C046FF0700006C
:1004D000F8B5041E31D0C70F00D04442201C00F0F4
:1004E00035F8184D2D1A0A2819DD0B3884402403DD
:1004F0006D05240B6D0D3A1C0026002000210B0D0C
:100500002403240B1B0523430F4C2D051C402C43B7
:1005100064006408D307211C301C1943F8BD061C75
:100520001536231CB3401E1C0B23181AC440240389
:100530006D05240B6D0D3A1CDFE700220025002419
:100540000026DAE71E040000FFFF0F801C210123B4
:100550001B04984201D3000C10391B0A984201D3A6
:10056000000A08391B09984201D30009043902A284
:10057000105C40187047C0460403020201010101EB
:100580000000000000000000FEE70000064B012212
:100590001A708023DB05D96B044A0A40DA63D96BF1
:1005A000034A0A40DA637047C4090020FFFFFFFED8
:1005B000FFFFFFEF38B5A025ED052B691B011B0FD1
:1005C000082B0DD1314900230B60AA8A52BA4A6028
:1005D000081C8B604A680C30103105F067FE47E05C
:1005E000022B0DD1294BD968002941D09A6818698E
:1005F00082423DDA9A68501C98602B7D8B5437E01C
:10060000042B30D1214CE368002B2AD022682169C9
:100610008A420BDA22689B5CAB6163682068C01871
:1006200080B205F081FE2368013318E06268236818
:10063000201C211CD2180C30103105F037FEE36865
:10064000002B0ED062682268616822688A18626096
:100650001B78AB61606880B205F066FE0123236001
:1006600006E0AB6104E0012B02D1084B00229A6046
:10067000C046A023DB05DA6801210A43DA60C046E0
:100680008022D96852000A43DA6038BDEC020020AB
:10069000F7B503F09BFB041C03F088FB0022A25675
:1006A000231CFC33002A00D018E1D96C002977D133
:1006B0009A6C002A01D0013A9A642822013A0CD39C
:1006C0009E4D9E6C511989000D682821714389182F
:1006D000A431490061188D80F0E78023DB051A689A
:1006E00010218A4396491A600A1C45321278012566
:1006F0009540EAB2C37A2E1C0F2A00D90F260F2785
:10070000321C3A4000920A1C47321278012595406B
:100710002A1CEDB2BD4200D93A1C1740002B1DD057
:10072000013BC2183432127855004D5D222A09D19E
:10073000844E2D01AD196A680F26B243009E3243E4
:100740006A60EBE7232AE9D12A017E4D52195668E7
:100750000F25AE43351C3D435560DFE77A4AA0893B
:1007600011680005090B000D090301431160A27A0D
:10077000E17A8023DB05891A0F200140734A186B48
:10078000490102400A431A631A6810218A431A6019
:1007900001225A701968FC3411431960E264CCE0FC
:1007A000C27A013A0FD3811834310978684E8D002E
:1007B0009F6CAD1928267E437118A4312D6849001D
:1007C00061188D80EDE78023DB051A6810218A43CC
:1007D0001A605B4BC27A191C4B310E7801210D1C3B
:1007E000B5402E1C1D1C43352D780F1CAF401D1C21
:1007F0004F352D783E43A9400D1C311C29430E1C5A
:10080000C9B20F2900D90F26311C0F27394000919A
:10081000191C493109788C4601210D1C6646B540EA
:1008200001954125EE5C019DB1400D43291CEDB2BF
:10083000BD4200D9391C0F40002A1ED0013A811850
:10084000343109784D005D5D23290AD13D492D01E0
:100850006D186E680F218E43311C009E3143696014
:10086000EAE72229E8D12901364D49194E680F25BA
:10087000AE43351C3D434D60DEE73349A58808682B
:100880002D05000B2D0D000328430860A178E078AA
:100890008023DB05401A0F2528402C491D6B4001A1
:1008A000294001431963FC34A66C002E08D01A6855
:1008B00010218A431A6001225A7019680A4309E01C
:1008C00024480121C17018681025A84318605A7087
:1008D0001A688A431A600023E3642EE09A6C002AA7
:1008E00001D0013A9A642822013A0CD3134F9D6C2F
:1008F000D11989000868282169438918A431490061
:1009000061188880F0E7996C8023DB05002908D006
:100910001A6810218A431A6001225A7019680A4322
:100920000AE00C480122C27018681024A043186025
:100930005970196891430A1C1A60F7BD00600010D5
:100940001499000000400040D40000401FFEFFFF4B
:1009500000800140C409002070B58022D2051379BF
:10096000DBB2C82B05D0C72B01D80133DBB2137122
:10097000F7E700233A4A3B499A188A4204D23A4997
:10098000C95804331160F5E7384B394A191D043B47
:10099000934203D200221A600B1CF6E7EFF30882A1
:1009A000344B191D043B9A4203D9334818600B1C81
:1009B000F7E703F007FB31493148053989B280B2C6
:1009C00003F096FA2F4B304C012252421A715A71A1
:1009D0009A71DA71221C3C321178221C3D32127855
:1009E0001D1C12020A43904234D105F0B9FC27497C
:1009F000274B0888274A98420BD0667D0888217DBE
:100A000036023143884204D1118889B22971090A1A
:100A10006971118899421BD0E07DA17D1388000285
:100A200001438B4214D100210423013BDBB2FF2B95
:100A300007D01948E618C05C36798642F5D1012105
:100A4000F3E7002904D013889BB2AB711B0AEB714A
:100A500001F04CFD114B04221A6062B6FEE7C0465D
:100A600000000020EC020020E09C0000F0020020CA
:100A7000BD090020780B0020CDCDCDCD80BF00007A
:100A800000000000CE09002040BF0000FEAB0000C7
:100A9000FFFF00003EBF000000AC000000E100E0EE
:100AA000014B18607047C046D8090020014B1868F8
:100AB0007047C046D8090020014B18607047C046F7
:100AC000DC090020014B18687047C0460000002078
:100AD000014B58687047C0460000002038B5114CE3
:100AE000256803F0C9FE98352860256803F0C8FE24
:100AF0009C352860256803F0CBFEA035286025686A
:100B000003F0D4FEA4352860074B08481B68006832
:100B1000197C007822684143D1651B7FA83213708D
:100B200038BDC04600000020D8090020DC090020A4
:100B300007B505F061FF03F0F9FE021E07D1694613
:100B4000A923888000900B7105F068FBFEE705F093
:100B500083FFFFF7C3FF07BDF0B585B00E1C071C70
:100B600005F058FC1F4C029023680021DA68381CFD
:100B7000920008F0FFFD2368301C1A6900219200E2
:100B800008F0F8FD029B5C78174D002C0ED0002079
:100B900004F016F92B68381C1A1C9C32A03312681A
:100BA0001B68311C05F0A8FC013CEDE72B689C3369
:100BB0001B68019303F072FD039003F07FFD03991E
:100BC000021C019805F038FC029B381C5A78311C35
:100BD00005F0B4FC201C2D6804F0F8F8B03528604E
:100BE00005B0F0BDD802002000000020F0B5404C58
:100BF00089B023681A1C94321278002A75D199683A
:100C0000002908DD1869C14205D55969F420CD0FC6
:100C1000FF3088426A4165331A7005F0FBFB226899
:100C20000024111C936865310D78A34206D11C2461
:100C3000005F16690124864200DB1C1C2C430C70EB
:100C4000002B52DB12692B498A4202DB2A498B4274
:100C50004BDD07937C2368465B4200240225C3706A
:100C600001212423848001704570857003710692F0
:100C7000201C694606AA05F0D1FA204F02A93B685C
:100C80001F4E1A681B798C804B708B7080235B42DF
:100C90002B43CB7045230B7133680A701A68201CF4
:100CA00005F0BCFA04A901230B703B688C801B7C07
:100CB00080204B708B706A230B71336840425A68F6
:100CC0000543201CCD7005F0A9FA094B01211B68D2
:100CD0001A1C6532117057321278A24203D0094AA9
:100CE0001C69944201DA15229A6609B0F0BDC0462B
:100CF000000000200CFEFFFFDF930400D80200205C
:100D00000400002018FCFFFFF0B597B005F082FB4F
:100D1000071C05F08FFE051C05F086FE7C490EAA17
:100D20000190131C081C8C4652C852C300686146CF
:100D3000186012AB0093181C103158C958C00968CC
:100D4000744E0160316812AB086B042105F03EFB64
:100D5000714B724C1B88132B16D92368002B01D0C2
:100D6000013B12E00A2323602B1CBC331B78002BB1
:100D70000CD1C0352B680125834200DAC5E0684BF1
:100D80001B88AB4202D8C0E00A232360654B1B8856
:100D9000012B07D96368002B01D0013B03E00A2334
:100DA000636080E00A23636033681A1C943212780F
:100DB000002A00D090E05A6979898A4210DDBC216E
:100DC000FF318A420CDC5849019D09684868A98EA8
:100DD0000027C55F8D4203DA0225405F884207DBAA
:100DE000F421FF318A4223DD1B6B52109A421FDA35
:100DF0007C2303A95B42221C01250020CB70083212
:100E0000C02388800D700B714D708D7005F006FA4F
:100E1000A268531EA360002A0CD105A9BE23101C92
:100E20008A8005920B7105F0F9F95023A3606CE0FC
:100E30005023A360E2680BAB002A08D1BD219A8041
:100E4000101C1971191C0B9205F0E8F92BE032689F
:100E5000111C65310D78002D27D0976E00240B975B
:100E60001169201C5960926807A99A6001220A70D2
:100E700003224A708A707C225242CA7010228C80EF
:100E80000A711A1C05F0CAF93368191CBC310878BC
:100E90009A6E0221A04200D014218A4202DC013263
:100EA0009A6631E09C6601252FE0146909A90B942C
:100EB000926809205A6001220A7002224A708A70E0
:100EC0007C225242CA7020228D800A711A1C05F0C1
:100ED000A5F933689D6618E09D68002D03DB134A71
:100EE0001E69964206DB5B697A8993420ADD104AE5
:100EF000934207DC2369002B01D0013B03E005236B
:100F00002361D0E7052323610025281C17B0F0BD1D
:100F1000109800000000002076080020D00000207B
:100F20007A080020740800200400002030F8FFFF39
:100F300099020000F0B55D4D1C1C2B6891B0049027
:100F400002920391191C9C331A680831049B029881
:100F500005F03EFB2B68061C191CA0331A680831EB
:100F6000039B201C05F05CFC514F06A93B68002246
:100F70008A801A681B790A704B708B70802302225A
:100F80005B4213430643CB70F6B245230120029A1D
:100F90000B71059605F042F93A6808A900238B8089
:100FA000137C02224B708B7080235B42012613431B
:100FB000CB70301C6A23221C0E700B7105F02EF9C9
:100FC0003B680AA91A68301C0A701A794A708A703C
:100FD0001A7ECA701A69DB69D3189B190B714B7999
:100FE0007F229343022213438022524213434B71C8
:100FF000029B00220093131C05F0DCF82D4B00210E
:10100000625E2D4E9A4203DB0221625E9A420DDA45
:10101000336801333360092B0ADD2B6803981A6E9D
:10102000211C05F0A3FC0023336001E000223260A4
:10103000059B002B2ED12B6802991A1C08321B6EBF
:10104000049805F04BFC2B68211C1A6E039805F0E0
:101050006FFC174F0CA93B6804251A681B790A70AE
:101060004B708B700E264423281C049A0B71CD7094
:101070004E7105F0D3F80EA901230B703B68281CB4
:101080001B7C039A4B708B706923CD700B714E7172
:1010900005F0C4F8201C05F08DFD044B1868503095
:1010A00005F08EFF002011B0F0BDC046000000200A
:1010B000D80200200CFEFFFF2C030020F0B5464EA6
:1010C0001C1C336889B01C60051C0491059205F056
:1010D0006BFD00211022414808F04CFB0021242226
:1010E0003F4808F047FB002124223E4808F042FB1D
:1010F000002110223C4808F03DFB3C4F0021381CE9
:10110000242208F037FB00212422394808F032FB62
:10111000324B0422009201933A1C3149344B09208E
:1011200006F0FCFC334B06A91B6800228A801A6873
:101130001B790A704B708B707E235B42CB70221C34
:101140006E2305200B7105F069F82B4C00216C22F1
:10115000201C08F00FFB264B042200931F4B092193
:10116000019202931E4A3B1C201C07F019F92070C3
:10117000FFF73CFDFFF7C8FD071E16D105F05AFC2E
:10118000201C291C049A059B05F08EFD281C04993F
:10119000059A05F097FE04F071FF012806D0336828
:1011A000D868196901F0A8FC00E0022705F03EF9B3
:1011B000041C05F03FFC2378002B0AD07C30037818
:1011C000002B06D104F05AFF012802D0012003F0C1
:1011D00052F8381C09B0F0BD040000205C0A002061
:1011E0006C0A0020D80A0020E0090020B40A002080
:1011F000900A0020D8020020F009002008B508F06D
:10120000CBF902F0D9FD08BD08B508F04DFA08F099
:10121000C7F902F0D1FD002003F058FA03F01DF8E1
:10122000FFF75CFC08BD10B58AB02422041C002125
:1012300001A808F09FFA01A805F0ECFF01A8211C05
:1012400005F07CFE05F09CFE0AB010BD30B585B0FF
:1012500005F0F0FB2B4D011C2B687C311A1C097822
:1012600059321278002906D1C4300178002902D100
:1012700051B2481C04D100245C60A2421FD12BE073
:101280005868DA6D904202DA5868013058600129D6
:1012900022D05B6893421FDB1B4B01241B685B7CE5
:1012A000002B0CD0201C04F0F1FE00226946A22382
:1012B000101C8A8000920B7104F0B0FF1FE0002226
:1012C000231C02A90E33101C8A8002920B7104F0B9
:1012D000A5FF2B6859331C702B681A1C59321278E1
:1012E000002A03D1094A1268127804E0012A03D1C6
:1012F000064A126852781A66186E02F0C7FF05B0E7
:1013000030BDC04600000020D8090020DC090020C4
:10131000F0B595B000AF02F049FD954D807A2C688C
:101320007863E268684653000833DB08DB00C01AC4
:101330002369920059000831C9080A32C900D2084D
:101340008546D200401A6E46F8628546801A854668
:101350003E639B006E463E620A33E669DB08B200DC
:10136000DB00C01A131C0A33DB08DB008546F8617A
:10137000C01A85466B467600BB62331C0833DB0817
:10138000DB00C01A854678620021B86A08F0F2F9DD
:101390000021321C786A08F0EDF9E36800215A0058
:1013A000386B08F0E7F9226900215200F86A08F06A
:1013B000E1F9002003F004FD2B686E49DB68086842
:1013C0009A00043A013B06D3041C9C3424683D6A0D
:1013D000A458AC50F5E77B6B09685A1E9200013B9C
:1013E00007D3081CA0300068FE698058B050043A4A
:1013F000F5E7012003F0E4FC5D4B5E4A1B681168D1
:10140000DB699A00043A013B7DD3081CA4300068D4
:10141000BC6A8058A050F5E764469C3424683D6A55
:10142000A458AD582C1B00254E5FA64200DA0C8054
:10143000043A0239013BEFD203694E4A591EFE6A53
:1014400014688A0049007118013B6FD2012003F033
:10145000B7FC474B474A18681168C3698C467C6AD9
:10146000591E8A0049006118013B6ED20379016858
:1014700039223A24D355E35538268023F1555B426F
:10148000022633433B200025C3553C214523BD871D
:10149000CB55391C012038313A6B04F0BFFE344E75
:1014A0000124306840234422DC55037CD55341217C
:1014B0004222CB55D355802302205B420343432174
:1014C000CB5544226A23391CD355201C4031FA6A7B
:1014D00004F0A4FE4C23DD5333684A201B7F4926C9
:1014E000C355F355802302215B420B4348254B2211
:1014F000391CEC55D3554C25B923201C48317A6A48
:10150000EB5504F08BFE04F0A3FD0C282CD1002039
:1015100003F056FC164B174A18681568C3683E6BF3
:10152000591E8A004900AC46711883E7201CA03080
:101530000068FD698058AD58281A00268D5F8542E5
:1015400000DA0880043A02397EE76446A43424684D
:10155000BD6AA458AD582C1B00254E5FA64200DA88
:101560000C80043A02397FE7BD4615B0F0BDC04695
:10157000D802002000000020F0B58DB000AF02F0CE
:1015800015FC02F023FC5B4B6C461868011C0CC96F
:10159000FA615A43D11849000831C908C900641AD0
:1015A0005549A5466E460968520084465008B2184F
:1015B0000024CA615A00BE618E6178613A617E6220
:1015C0007C603C623D6AFE69B54211DBDA43F04360
:1015D000D217C0171A40304050437C693861BD694A
:1015E000604600696200AA183A62786200225FE0F1
:1015F00000229A4229DA7D688E6A541903256C43C9
:101600003419667825787600ED09301C2843A578D2
:101610002478FD60FE68012535406D02061C2E43CE
:101620000A2070435500FD60B860051C7E6AF868AA
:1016300064063552640E06D00A267443E4112C1950
:10164000786AFD6844530132D3E7DA437E68D217E3
:101650001A40B618386A7A6A3C69013012197E60FD
:1016600038627A62AEE73E690324901960438C6A5F
:101670002018047845788678E4096D002543012414
:101680003440640225430A266E4354007C6100788E
:10169000341CFE603D6A7E694006AC53400E06D0A5
:1016A0000A256843C01120183E6A7C693053013214
:1016B0007D6AAA42D7DBF869DBB22A2228262921D3
:1016C000F055CB55D3556446237E786A2B252C26BE
:1016D000EB55F05502232D21381CCB552830B96924
:1016E00004F00CFD044B00221B68BD469A61DA61D0
:1016F0000DB0F0BDD802002004000020F0B5474D29
:101700008FB02B686E465C681A6800AF624313198D
:101710005B000833DB08DB00F61AB546FC626C465A
:10172000BC623F4CF86A2368694652004600500884
:101730008A189961DA61F861002003F041FB394AA7
:101740002B6815681968BD61FD6A396201394D431E
:101750007608760070424E433D60BD6A7861AE19EE
:101760003E613E6A00217E6294467E6A013E7E6250
:101770001CD35A682C4C3D683E69101940198E19CB
:101780008000FE60013A0AD3BE6954009C36366878
:10179000251C3658FC68BE6066530438F2E738688A
:1017A000FC6A7D69001B38604919DEE7FC69604608
:1017B000BD6A196900686600AE19F8627E62880029
:1017C0000A1C0438013A0AD3A026B446FE6A540023
:1017D000B444664635682E587D6A2E53F1E73A6A5E
:1017E0003020C2551A7931243225E255EA551B7E44
:1017F0003326F35534207E23C1555B423521381CF6
:10180000CB553030B96A04F079FC054C00222368CE
:10181000BD469A61DA610FB0F0BDC046D802002023
:101820000400002000000020FFFFFF3FF0B5604DE6
:101830008FB02C6800AF66682168FE6271438B1917
:10184000DA1D5B00D2080833D2006E46DB08B61AF8
:10185000DB003962F11AB546564B8D46BE626E46C4
:101860001B683A6AFE61BE6A1E62311CB6185E626F
:10187000E268081C002107F07DFF2269301C00216E
:1018800007F078FF4C4BFC6A1B68620064331B78DE
:101890003E6A52087A617B627200A30052085B4282
:1018A0003A61FB607C6A002C60D0002003F088FA6B
:1018B0003F4B414A186812684368BA61013B2BD319
:1018C0000268FD6A541E6C431C19A400013AF5D34A
:1018D000B969FE699C3109680959396079693D68BF
:1018E000514359184900895F491BFF2900DDFF2139
:1018F000BE6ACD43F6187E60FE6AED1756430D4072
:1019000079688D557969FD6951433E6859184900D8
:101910004E53FD686419D9E70369274A3C69126888
:10192000E018FD695E004000BA61B4462818002244
:10193000023A013B16D3BC696646A034B11824684C
:1019400049000C59815E091BFF2900DDFF213D6A1A
:10195000BE6A84527619BE60CE43F617BD68314028
:10196000E954E5E77E6A013E7E629BE7104D302632
:101970002B68312419681A793225F155E255EA5558
:101980001A7E1B693421CB553326381C7F23F25530
:101990005B4235223030B96AD35504F0AFFB054BBA
:1019A0007C6A1B68BD461C625C620FB0F0BDC0461D
:1019B000D80200200400002000000020F0B58FB005
:1019C00000AF02F00FFA664BB8621B6868465C68AD
:1019D0001D68BB61231C6B439A00FC620A325B00EA
:1019E0003D62D208FD6A0833D200DB08801A6D0020
:1019F000DB008546FD61C01AFD6A5A4B6C46AD009E
:101A000000211E683C618546F8607D61221C796278
:101A10007D6A3C6AA54203DB00243D697C623DE0AF
:101A20000023FD6AAB4226DA032458186043B46AE7
:101A3000201805783D60EC09457880786D002C43CE
:101A40008446BC60012064462040BC6840020A25F0
:101A500004436C433868AC469D007D605451450694
:101A60006D0EBD6005D060466843C51165197C6880
:101A700015510133D5E7786AEB43DB177C692B40BE
:101A80000130C91878621219C2E77C6AF86901341A
:101A90007C627C692D19BC6A2418BC627C6A386A35
:101AA000844204DBFC683D69BC62002635E000240A
:101AB000FB6A9C42E9DAA600A959BA6AFA206300D7
:101AC00080004843D15AFEF71DFB0134A851EFE7CF
:101AD000A300EA185168EB58CA1ACB18D017D90FCF
:101AE0001218C91842404910581C00DA4942FA201D
:101AF0008000630050437B62FEF704FBB96A7A6A98
:101B000001348852FB6A013B9C42E1DBBC6AF86904
:101B100001362418BC627C692D193C6AA64201DAA0
:101B20000024EFE73C6A3025EC55FD6ABC69EBB256
:101B30005A1E31203221C255CB55237E3325EB5519
:101B400034200023C3557E235B423521381CCB55FE
:101B50003030F96804F0D2FABD460FB0F0BDC0468F
:101B6000D802002004000020F0B591B000AF02F0D0
:101B700039F96B4B38631B6868465C681D683B62CB
:101B8000231C6B439A000A32D208D200801A854681
:101B90007C636C467C627C6BBD621B197D6B5B0059
:101BA0006D000833BD61DB087D6BDB00C01AAB0044
:101BB00069469B0885466C46FB617C61594BFC6914
:101BC0000A1CA40000211E683C61F962FD6ABC6A1F
:101BD000A54203DB00247D6AFC623DE000237D6BAF
:101BE000AB4226DA032458186043B56A28180478F3
:101BF0007C60E50944788078640025438446FD6074
:101C0000012065462840FC68400204430A20444302
:101C100084469800B8601450786845066D0EFD60E3
:101C200005D060466843C5116519BC68155101337C
:101C3000D5E7F86AEB43DB173C692B400130C91844
:101C4000F8621219C2E7FC6AB8690134FC623C69A7
:101C50002D193C6B24183C63FC6AB86A844204DB8F
:101C6000BC6964083C63002438E000247B6B9C4220
:101C7000E9DAA600A9593A6BFA20630080004843CC
:101C8000D15AFEF73FFA0134A851EFE7FB696E1C09
:101C90007343786AE3189B001958FB696B43E31898
:101CA0009B001B58CA1ACB18D017D90F1218C91885
:101CB00042404910581C00DA4942FA203B6B800030
:101CC00050435D43FEF71EFA651979696D0068524D
:101CD000351CBB6A013B9D42D8DB01347D6BAC42B5
:101CE00001DA0025F5E7BB6A7C6B013B3820C35560
:101CF0003925E3B23A203C6AEB55C355237E3B2598
:101D0000EB553C200023C3557E235B423D21381C0C
:101D1000CB553830796904F0F1F9BD4611B0F0BD0A
:101D2000D802002004000020F0B5BBB0029007F0FC
:101D3000BBFC051C04F07EFE019004F0BDF99B4C39
:101D400026AA231C111C2033C1CBC1C141CB41C1E8
:101D50002BAF211C381C3431BC46C8C9C8C048C987
:101D600048C0934E6346316818AF486A052104F0B5
:101D70002DFB039048200597391C00198CC88CC195
:101D8000211C54311BA8049184468CC98CC0316835
:101D900018AA6346486A032104F018FB231C049028
:101DA00030A8011C6033844685CB85C184CB84C1B7
:101DB00035AB191C743485CC85C105CC05C131689F
:101DC0006246486A052104F001FB7A4A1EAB9C4634
:101DD000131C05900833604692CB92C01B68111CFF
:101DE000036022AB181C183194C994C0096862467C
:101DF00001603168486A042104F0E8FA3368039FFF
:101E00001B6B6D4CBB420ADC049FBB4207DB019B92
:101E1000059FB8331B68BB4201DC834221DA019B7A
:101E2000BC33187800281CD1694601230B764B7609
:101E30008B767C235B42CB76221CC32388831432AF
:101E40000B7706A904F0EAF96269531E6361002A60
:101E500009D108A9C423101C8A8008920B7104F0D0
:101E6000DDF90323636104F0FBF8071C04F014F9A7
:101E7000029C032C02D0002F03D107E00124002F85
:101E800036D0002004F0F4F8012431E033683C1C23
:101E90009033188800282BD1029F012F02D0022FE7
:101EA00001D002E0029804F0EFF904F0E7F933689A
:101EB000071C92331B780022834218D0904208D02E
:101EC0000AA91123101C8A800A920B7104F0A6F94A
:101ED00008E00CA913233A1C88800C900B7104F0C5
:101EE0009DF93D1C3368002492331F7000E0141CE0
:101EF00031680B1C943395311A780978914215D0CA
:101F0000002A08D101250EA91D70C5238A800E92D2
:101F10000B71101C08E0002510A91D70C6238D80D0
:101F200010950B71281C2A1C04F078F907F0BCFBF3
:101F3000A84209D0281C07F0B1FB281C07F05CFB65
:101F4000002002F0C3FB062404F0B6F8051C04F0E0
:101F500071FD0379AB4200D0057104F0A5F804F0DF
:101F6000B3F833680021A8335956021C81421AD0B5
:101F70001870012805D1002212A912928A801A2312
:101F80000DE0022805D1002214A914928A801B2397
:101F900005E0002807D116A9169088801C230B7134
:101FA000101C04F03BF9201C3BB0F0BD1098000061
:101FB0000000002090980000D0000020F0B5B1B0E3
:101FC00002AF041C04F036FD04F076F84021002234
:101FD0000020CA53CD19391CA623021C3C312B709A
:101FE000F86304F01BF9FFF731F9E14E6D463368F1
:101FF000BD611869DD68DB6928187B62C3185B0066
:10200000BB621A1C0A33DB08DB006946C91A8D461D
:1020100002AB38630232181C0021FB6207F0AAFBF6
:10202000D4483C22006800217861083007F0A2FB08
:10203000D14BF96A1B686D004D1919605D607D63B5
:1020400004F0F8FC3A6B796A051CFB6A50004A0000
:10205000291CD4311818CC3507F04AFB2B68B86A14
:10206000FD6A2B52002002F091FE391C6C3133685E
:1020700000228A80BF4A1D681B7912684B708B70E2
:1020800043230B71131C9C330420C8701A68022070
:102090000D7004F0C3F8391C643100238B80336861
:1020A000B44A1B7C12684B708B7067230B71131C36
:1020B000A0330420C8701A68022001250D7004F0B6
:1020C000ADF861682068FA6A7B6BFEF733FF21691F
:1020D000B862002803D0081CFFF7A5F89BE17B6BD2
:1020E0006269E0680093FB6AFEF7E8FFB86204F0FB
:1020F00091F9786304F09EFC061C9E48796B026897
:102100004B8952699A421DDDE268002A1AD1331CBC
:10211000BD331878002815D1391C5C3180230D702F
:102120004D708D705B4204252B43944DCB702A1C5F
:10213000BF230C3288800B7104F070F8EB68013B10
:10214000EB6002E08D4B5022DA608A4B1B689433BF
:102150001B78012B00D0D3E0731DDB7F884ABB6066
:10216000B868E36800280CD11978012978D1D968BA
:10217000002975D00225595F516006201B5E9360CF
:102180006EE0B96801296BD11D78AC46002D67D18E
:10219000316B002962D0956850687D6238632625CE
:1021A000705F3D6B3862281A786350602A25705F33
:1021B0007D6AF861281A78609060786B7A68786731
:1021C0003D6B786ABA678022FD67D05102255A5F5D
:1021D0008420C25106255A5F8820C251DA688C25B6
:1021E000EA5104201A5E9025EA5108201A5E1B6904
:1021F00094259820EA51C3513A6AFD699C23DA512B
:10220000A020A422C551D1512825735FA820C35115
:102210002C21735EAC22786BD351736B7A68B02536
:10222000C117EB51D517431850194B406840181887
:10223000B421C851BB68391C54310B70112362465C
:102240004B708B707C238A805B423A1CCB7060465B
:10225000F32374320B7103F0E1FF01E051609160F0
:10226000444D2B685A680A2A4AD1E0680578002D47
:1022700046D171698C4642494A688968D01712185C
:1022800042407A63CA17786B8918514041187963C4
:10229000596A95312DDB5A69632A2ADC6146C817D1
:1022A000400F4218786BD210904222DD391C7431F5
:1022B000E9232A1C281C8D807D670B7103F0AEFF7B
:1022C0002C490A68131CB8331968013119600329B5
:1022D00012DD953215705022D0191D60391CFD2376
:1022E000D5534C3103702A1C281CFD6403F096FF63
:1022F00002E0B83300221A60214B00225A609A6033
:10230000351CBD357D632B78002B04D0331CEC339A
:102310001B78002B08D01B4B1B78002B02D0E068E9
:1023200004F078FFE0682FE0154D2B7B002B2DD1BA
:1023300020690B250378002B28D1013DE068002D92
:1023400022D0331C42331B785BB2002B02D0FA231D
:102350005B00C360331C43331B785BB2002B02D09D
:10236000FA235B000361216900F0C6FBE5E7C04684
:10237000D80200200000002004000020D00000202F
:102380002C0300203208002004F044FF7D6BE1683C
:102390002B784E4D68462B736D467D630D780A6928
:1023A000AB000733DB08DB00C01A854602AE002A0B
:1023B00006DD013DA80030182031042207F098F90D
:1023C000E168CB68002B06DD681E800030181C31E8
:1023D000042207F08DF93E4B44251B6845211868FF
:1023E0001A79E8554625CA55EA551B7E4720C3553C
:1023F00048210023CB557E235B424922D355FD6AF9
:10240000E368391C1A78032000954431331C03F02B
:10241000D1FE7D6BAD4602F0D7F801F0D7FC051C6C
:1024200004F008FB061C03F037FE2A4CF421226856
:10243000FF318C465169254B614527DC5236317896
:10244000002923D119691E2916DDBC3211780843F1
:10245000C0B2002805D020485D69854205DC00290E
:1024600005D11E495869884201DD012100E00021A3
:10247000117000221A6104E0FC229200AA585969E6
:102480008A185A611A6901321A6102E000221A613F
:102490005A61134B00221B681A605A60BD69AD4631
:1024A00001F01AFF236872201856FFF73DFC002840
:1024B00000D1B86A0B4B1B681A680B4B9A4202D0CA
:1024C00002F07EF9FEE7BD462FB0F0BD2C030020E0
:1024D000D80200200000002030750000A861000034
:1024E00004000020140B0020CDCDCDCDF0B5A1B05F
:1024F00000AF01F00BFD03F0ABFD041C07F03CF84E
:10250000002007F079F800F0D9F9FEF711FBB84B7D
:102510001B68D8681969DB694218D3180322534332
:102520000733D34093406A46D21AB24B95461B6894
:102530009A6203F08DFD061E082E00D139E10828AD
:102540000CD8012800D1CAE0002816D0022800D1FA
:10255000CCE0032800D11AE1341CEAE70E2807D8A2
:102560000D2800D335E10C28F6D103F0B5FD29E1A3
:102570000F28F1D103F0B0FD35E103F07FFD002815
:10258000EAD16846386001F00BFE381C311C242269
:102590005C3007F0EFF83D1C381C311C1822203548
:1025A0002C3007F0E7F8311C0A22281C07F0E2F86B
:1025B0008F4B1B68D9681869DB690A18D3189B0010
:1025C0000A33DB08DB006846C01A89009200411814
:1025D00082187960B964FA645C212C22C919D21975
:1025E00006238546B860786439657A65BD65FB6009
:1025F000F868022802D8002814D004E0F9680329FA
:102600000CD006295FD101F0E5FFC0B203F048FE0F
:10261000784B00211B68986A03F02EFBB868796834
:10262000FEF79AFA734D5C222B68D219DA603A1CD5
:102630002C321A610C3A5A61002C01D003F04CFD87
:102640006D4B00221B681A6003F024FE041C01F08D
:10265000C1FFA04217D0201C01F0C1FF01233B762F
:102660007B76BB767C235B42391C3A1C0020FB76D0
:102670001831E9231432B8837C613B7703F0CEFD37
:102680000323FB6016E0381C4430FFF797FC5A4BDD
:102690005A491B68F8601A688A4201D001321A60F0
:1026A000002807D103F0EAFC002803D103F0D0FC96
:1026B0000028C9D02B6800241869FEF7B4FD2B68E8
:1026C000DC601C615C6103F0D9FC002802D0386832
:1026D000854641E703F0BCFC002889D0F7E703F00A
:1026E000FBFC03F0B5FC0128FBD035E7FEF786FDC7
:1026F000404C23681869FEF796FD03F06FFC00203C
:1027000001F0E4FF01F07CFFFEF7E8F92368002107
:10271000986A03F0B1FA03F0DFFC03F0E7FC052848
:102720002CD00CD802281AD002D8012814D027E0C7
:1027300003281DD0042823D102F0D0FC20E0152866
:1027400010D004D8062816D0142805D018E0162872
:102750000BD017280CD013E0FEF70EFF10E0FEF7A9
:10276000CDFF0DE0FFF700FA0AE0FFF727F907E0D9
:10277000FFF75CF804E001F070FD01E001F066FD98
:1027800003F066FC0228C8D0FEF73EFDE4E603F045
:10279000A3FC184C01212368986A03F06DFA2368A2
:1027A0000021986A03F068FA03F052FC0328FBD07A
:1027B000D2E603F091FC02F003F803F049FC08288C
:1027C000FBD0C9E6FEF7A4FD03F042FC0C28F9D0CB
:1027D000C2E603F081FC002002F0F2FA03F038FCBC
:1027E000B042F8D0B8E603F033FC0F28FBD0B3E6D4
:1027F000D80200200400002000000020FFFFFF7F1F
:1028000038B5041C0D1C03F09BFC012811D00028D6
:1028100002D003282ED04DE0274B02351B68AD00B7
:10282000DB685D196B68DB10FF2B00DDFF23637134
:1028300040E0214B1A68AB1CD1689B00CB185B6849
:10284000DB10FF2B00DDFF236371D368AD005D1942
:102850001F221E23AA56EB561D21D31A1C2269568D
:10286000AA568A1A934202DDA371E27122E0A27194
:10287000E3711FE0104B1A68AB1CD1689B00CB18AA
:102880005B68DB10FF2B00DDFF23A371D368AD0075
:102890005D191F221E23AA56EB561D21D31A1C2296
:1028A0006956AA568A1A934202DD6372A27201E047
:1028B0006272A37238BDC0460400002008B504202F
:1028C00003F078FD00F00CF801F006F803F004FBCB
:1028D00004F0B0F8014B0430C36708BD01280000C4
:1028E0007047000030B5D31A151C0F4A03ACC93D20
:1028F0002478411A95420BD8C81709184140D817B7
:102900001A18424091420CDD60426041C0B20AE0B8
:10291000CA17D817891851401A1842400620424356
:10292000F0E7DB43D80F30BD9E0F0000F7B514224F
:102930004243354B11219A185156147C334A0229CF
:1029400045D164B2611E00D5611C052747437D183F
:102950003F19AE000097BF009E59DF590235BF1BDB
:10296000FC173F196740009CAD000234A4005D597C
:102970001C590197641BE717E4197C40A700BC466B
:10298000019F674501DD012404E0019FBF00BC42B7
:1029900001DD02241454012901D0013100E000219D
:1029A0000524444361188C000231890059581C5990
:1029B000491BCB17A61BF417C918175C59403319CC
:1029C00063400324012F05D06343994205DC0023B3
:1029D000135402E061438B42F9DD115C43000C4A61
:1029E00002290DD10B490C5C0B49095C8C4201D0CA
:1029F0000021D152D15A0948814203D0013100E06F
:102A00000021D152F7BDC0462C0B00203C0800200D
:102A1000380800203608002034080020FFFF00009E
:102A2000F0B514254543334F041C7E19301C85B086
:102A300010300191039010217156009103F0DCFFDA
:102A4000009A0290630001320DD10198C31802214F
:102A50005A5E0398EA5106229B5EB36000233374EA
:102A60000123437043E00099012902D00E1C013676
:102A700000E0002605276743019A0098D5183B1807
:102A800002202A5E990094461A4A02335058614641
:102A9000401AC2179B009C46801806216B5E50406E
:102AA000144A00936346D158009A891ACB17C91863
:102AB000594004F0A1F8029BDE331B78984216DDE2
:102AC00002202A5E0B49BF19BB00CA500622AB5E2A
:102AD0000237BF00CB5114235C430C19627C231CCA
:102AE00051B226741033012901DC01325A7005B04D
:102AF000F0BDC0462C0B0020F0B5CFB01991089066
:102B000003F07AFF03F092FC03F08EFF0A9003F0CB
:102B100091FF0A9B0D909A331B7801229A40131C57
:102B20000A9A84309B32127800219B1A0A9A9C32AE
:102B3000127815909B1ADBB218223AA81F9306F060
:102B400019FE03F0B9FACF4B0C90191C2CAA30C90E
:102B500030C200222E923092CB488C2252002F900D
:102B6000319232AAC0C9C0C240A8021C70C970C24A
:102B700091C991C209682C33116047A90A1CE0CBA6
:102B8000E0C213CB13C21B681360C04B1B68BC337D
:102B90001B78002B08D10A9B9E331B881E930A9B2F
:102BA000A0331B881A9302E0B94D1A951E95B94BB4
:102BB00000261B685B69002B09D0013B089F5A0067
:102BC000BA181820125E9642F5DA161CF3E70D9B30
:102BD0000A99B833496C18680A9A0A9B05917033B0
:102BE000C9B2483203F0F2FB089C09902378022B0B
:102BF0003CD11825635F1A27E55FAB4201DD0793DF
:102C000001E007951D1C0D9B26A9B8331B68002702
:102C10008F808027079C34937F42042301203B430D
:102C2000359408700324CB700D20292334AA0B712E
:102C300036954C708C7003F0F1FA099B73439B122C
:102C40009D4213DA28A90020012237953993079D68
:102C5000042388801F430A702A23002037AA38954E
:102C60004C708C70CF700B7103F0D8FA089C2378ED
:102C7000002B34D00A9D608A2A1C2B1CA9790832AB
:102C80001C3303F0A3FBE268642150245143444306
:102C9000814BA14221DD1C68804DAC4201D0013442
:102CA0001C601B68012B1ADD64235843814216DA2D
:102CB000089F3792BB8A2AA9389301230B700223FD
:102CC0004B708B707C235B420020CB7037AA25238E
:102CD00088800B7103F0A2FA01E000221A606D4BAC
:102CE0000D9F1B685C69099B651C73439B121493C1
:102CF000143B1693231C11339B00FB181093231CC9
:102D0000089E0B335B00F31807930C236343AD005D
:102D100075193AAEF618089FE31D5B00FB1809967B
:102D20000433002604350B930E96002C00D151E19C
:102D30002E68013C002E00D13EE1544B1B685533F8
:102D40001A780823171C9F433B1C59424B41DBB2A6
:102D50001393002B2BD0524B002A0AD0586907211D
:102D600047AB40AA03F032FB322343431196129340
:102D70001DE05E68022111969E68DB682EAAF61897
:102D8000301C2CAB03F022FB0221071C32AA30AB13
:102D9000301C03F01BFB2B68AF2200904149181C2C
:102DA00012013B1C03F0F4FA6423434312930A9E7E
:102DB0000B9F321C331CB179388808321C3303F066
:102DC00005FB061C089819996700C219CB19022146
:102DD000505E0F900220195E06201B5E0E910621A8
:102DE000525E3149085D0E9900900F98FFF77AFD09
:102DF0002E4B0C991855012904D00A9B36331B78A9
:102E00000E9301E005220E92099B28680C3B0B995A
:102E10001860099B0A88083B07981A60099B0022E2
:102E2000825E043B1A60194B1B681A1C943211789D
:102E3000002201294DD11A1C3C321278186B52B273
:102E4000012A03D1D969002905D131E0022A2FD105
:102E5000DA69002A2CD09A691B6AD10F8A1852109D
:102E60009A4207DD96239B00C822009378215200E6
:102E7000962324E0AF239B00C822009378215200C0
:102E8000AF231CE0B89800002602000000000020DC
:102E900070170000D802002044030020FFFFFF7FCE
:102EA000D80A00201405000034080020360800204D
:102EB000FA239B00C822009378215200E1235B0093
:102EC00003F066FAC04B01221B685B69834200DB9A
:102ED00000220D98296803194233187864230028CA
:102EE00004D040B284460E9884452BDC59435E439F
:102EF000B14259DB079E4A210023F35EFF318B422A
:102F000052DD149EB3424FDB119E64237343129E25
:102F1000B34205DA139E002E02D00C9E012E43D13F
:102F2000002A41D1A84B1B6894331B78002B43D057
:102F3000A64B1B68DB68DF19BA8A0A235A4318209C
:102F4000395E2EE04B430A99303109784E43B34243
:102F50002ADB079E2C210023F35EFF318B4223DD09
:102F6000169EB34220DB119E6E237343129EB34222
:102F700005DA139E002E02D00C9E012E14D1002AD9
:102F800012D1914B1B6894331B78002B14D08F4BBC
:102F900009221B680A21DB68DF19BB8A5A43182003
:102FA0003B5E4B439A4207DD109E00232B6033604B
:102FB000089F3B78013B3B70109E079F043E023FF9
:102FC00010960797099E0B9F0C3E023F043D099601
:102FD0000B97AAE67E4B089E1D687B4B6C690D9F84
:102FE000611E221C1868631C9B0011324900F318F3
:102FF000711892003C1908360433BA18063141346E
:103000000796079EB3423ED01E68002E36D0267823
:10301000002E03D00E9F76B2BE4211DC0027CE5F99
:10302000052E08DD0D9F7F69BC46049705277F426A
:10303000BC44664522DB3C27C65F022E14D11DE04E
:103040000027CE5F002E03DD0D9F7F69BE4215DB9A
:10305000061C3D36367876B2002E05D1061C3C366D
:103060003678013E012E09D90C9E012E06D000268D
:103070001E601660089F3E78013E3E70043B043A95
:103080000239013CBDE76C69089F651E6D007D1922
:103090000635002C0DD0013C089EA300F318DB6818
:1030A000002B04D00027E85F03F0ACFF2880023D2E
:1030B000EFE7089D454B2C701B68D86800F01AFCA0
:1030C000EB68002B15D03793AB8A34A938931826B8
:1030D000AB5F1220399301230B7003234B708B706D
:1030E0007C235B42CB7037AA36238C800B7103F0B4
:1030F00095F8374B199F1B68089D5B6907931A1C4D
:1031000001339B00F918013A04315200EB180433E3
:103110001491B918079F12930C237B438C1CAA1897
:10312000961C11940632159C0C920D9AE31810937C
:1031300084327B00D21809962292199E254AED18F6
:103140009A180631F318002713912592249523939A
:103150001597079F002F00D1F4E2079C129D0D9E4A
:10316000013C2B68361907941796002B00D1A3E277
:10317000423633780E9A0133DBB259B206321696D4
:10318000914201DC337003E00E9B169F04333B70C9
:10319000169D00242C57012C00DC13E2A01C0321F7
:1031A000FDF706F8109A0D1C0C3A0323022C13D1DC
:1031B000013B19D3099E590030880C9F5052388822
:1031C0005118C880F4E7C046000000200400002029
:1031D000D802002038080020119C4900238852188A
:1031E000139E13803388D380169F3E780E9F74B24F
:1031F000BC4200DC9FE1681D0321FCF7D9FF109F52
:103200006B000C3FFB18189700201F5E1B91281DB8
:1032100003210B970F93FCF7CBFF189D0F984F00DE
:10322000EF190625455F022C00DD02260021785E9D
:103230000B9A76B2311C101AFCF764FF209006231B
:10324000F85E311C281AFCF75DFF209E0B9F451984
:10325000F61921901C961D95032C14DD099C119DD7
:103260000020205E0023EB5E0C9F139CC01A0022FE
:10327000BA5E0023E35EC617D31ADD1780195B1907
:1032800070406B4011E0229F159C099E3A19002363
:10329000F35E1625505F1A27D25F181A9B1AC617BD
:1032A000D91780195B1870404B40099C159E229DD0
:1032B000C0182388AD190C9CEB8223881A9E962196
:1032C0006B834A0000961E9B0B9503F061F8099CE6
:1032D0000F9E0027E75F0022B25E0C9C0F9900262C
:1032E000A65FBB1A06240C5F051CD8171B18341BDD
:1032F0004340E017241844401C190798D04B195C30
:10330000D04B1B5C99420ED1CF4B1B5C022B0AD1D8
:10331000259915980B18023B1B88192B03D9F42308
:10332000FF339C4203DD381C2B1E01D109E0C74B43
:10333000201C1919784353431B1848101818FCF720
:10334000E1FE0B990F9AC884D388301C002D08D059
:1033500018B22919684374434B100019C018FCF7C0
:10336000D1FE0B9C1C9D60857B1B1D9CD817351BBB
:103370001B184340E8172D1845405D190024962D71
:1033800001DD2C1C963C119D0020285E381A139FED
:103390000021795E711A03F02FFC1B9E0F9D189F70
:1033A0002D887300FB181C950A9A1D889B321B956B
:1033B0001278099E189236880A9A1D969C321778C0
:1033C0000A9A0F999A3215780A9AC8880C999D32F0
:1033D0001678DA880B889E49097800291DD11F9933
:1033E00000B24843189912B21BB24A43391C5943E0
:1033F0008218521821992A41714396202941521866
:10340000C000634350439622D200A118C0184A104E
:103410008018FCF777FE0C9B18808E4B1B78002BD6
:103420001FD11D981C9903B21F9A08B21B995043D3
:103430000AB218995F434A438018C019209F284157
:103440007E432E41851996229620D200C000A118F5
:1034500068435C434A1000198018FCF753FE099C2E
:103460002080169D0021099E0C9F69560022B25EA5
:103470000023FB5E04290AD1119C139E0020205ECC
:10348000101AC517401968400022B25E09E00B9C73
:103490000B9E1E20205E101AC51740192222B25E14
:1034A00068409B1ADF17099CDB197B400B9DC018F5
:1034B00023880C9EEB83338880246B840A9B6400F2
:1034C000A23319880A9B2F1CA4331A880094002366
:1034D00002F05EFF099D2626BB5F0022AA5E241A29
:1034E00042436343099FD3181B120C9D3B8000236A
:1034F000EB5E0B9E58432A23F35E0C9F5C430A9BB2
:10350000041924123C8002333E201B5E149D129E3F
:103510002C683068002B0BD0221AD717D2197A40AA
:103520009918504363434D1018184019FCF7EAFDF1
:10353000129C206046E00E9DAC4243D1109E281C98
:103540000C3E033003210B96FCF732FE099F4B0023
:103550003C88F3181C800C9C0F1C22880024DA8005
:103560000325261CE8190321FCF722FE0B984900CD
:10357000411800228B5E013DF61806200B5EE41810
:10358000002DEFD1301C0321FCF7BCFD099E85B254
:103590003580201C0321FCF7B5FD109B0C9F80B2E9
:1035A000083B38801D80109B023B1880109B0A3B13
:1035B0001D80109B043B1880109B0C3B1D80109BB2
:1035C000063B1880099C119D20880C9E288031881C
:1035D000139F129C39802568149E159C249F35608A
:1035E0003B19239E5A8A169F33195A820023FB5691
:1035F0000E9C194AA34237DC0D9B42241C57012C18
:1036000002D01378002B07D100231370134A1370D4
:10361000134A1360134A1360002D0CDD079D002D23
:1036200009D1012C07D10C4B00B21C700C4B09B214
:1036300018600C4B19600123129E5B42336036E028
:1036400036080020340800203C08002030750000B7
:103650003108002030080020330800203208002004
:10366000100B00201C0B00201378002B1BD0904C5B
:10367000904D27682A6800B209B2891AC01B03F06E
:10368000BBFA8D4B2A6818602368632B03DD8B4BD4
:10369000643A9A4204D9952802D8894B01221A70BB
:1036A000884B00221A70089C237801332370179BE3
:1036B000002244331A702CE0179A002142325156EE
:1036C0000E9D149EA94222DD3668002E21D0179847
:1036D000443001780131C9B201700A9849B23730DB
:1036E0000078814202DD149F3B6011E0119C099D2E
:1036F0002388139E2B8033880C9F14983B8000688E
:10370000129C089D20602B7801332B7001E0336000
:103710001370149F119C159D099E043F023C023DAD
:10372000023E14971194139F0C9C15950996129DB7
:10373000109E023F023C043D0C3E13970C941295E0
:10374000109606E5089C199D23780D9C2B700D9B07
:103750000D9852331F705C4B1F683E69351C6F35E6
:103760006519341C2734640004190434013E00D266
:103770007EE02388002B0DD00A21625E1BB2002A56
:1037800002DC0A98428E01E00A998A8E934201DA9D
:10379000002323802088002842D02B787F2B01D063
:1037A00001332B700022AA560992022A1CDD0A9BC3
:1037B00000B202333E22995E62890B91002912D039
:1037C00013B21A1A9C46D317D1180B9A5940634664
:1037D0000C9151185A4394460C9A4B105043604434
:1037E000C018FCF78FFC208023880A9A6381383246
:1037F00012780998904203DC01235B4223800CE09D
:103800000D9A1BB252321178013111700799994209
:1038100003DA0D9A07935332167000232B7124E0BC
:103820000A9B00223833AA561B789A421BDD638913
:10383000002B1AD02A790A990132D2B22A71393171
:10384000097852B28A420EDC079A23801BB29A4250
:1038500003DA0D9A0793533216700D9B52331A7880
:1038600001321A7001E060812870013D023C7DE761
:103870007C69002C19D0013C089DA300EB18DB6883
:10388000002B07D060B2291CFFF7CAF8201CFFF7F5
:103890004DF805E0142363430C4A9B18FF221A7469
:1038A0000B4B1A5D0B4B1A55E3E74FB0F0BDC0460A
:1038B000100B00201C0B0020240B0020CC1000005B
:1038C0003208002033080020D80200202C0B0020F2
:1038D000360800203408002008B5A02002F06AFD58
:1038E000034B00211860A02205F044FF08BDC0462C
:1038F000740B0020F0B59BB00790FDF7E3F803F0E0
:103900007BF803F091F803F095F80D90FDF7E0F8DF
:10391000C94B0A901A68C94B1B680B93BC331978C2
:10392000C74B1B685B69002900D1AAE002935024B1
:10393000013B5C43079E5D00751902351419029E18
:10394000002E00D11DE2029F079E013FBB00F3182D
:10395000DA68FA2302979B009A4200DC8CE0236825
:10396000082B01DC013323600023043B191C2431A4
:1039700005D0E218976AD06CD7621065F5E700228F
:10398000AB5EA3600426AB5F2668E362231C092EAE
:1039900059D1043B013E09D37200D96A4027BF18B0
:1039A000684639521F6D15A95752F2E700231E1CB5
:1039B0000136B446002740206946C018405A10A975
:1039C0005A18D219039005925088039A01B212B284
:1039D0008A4206DD4022D218694650520398059A61
:1039E000508015AA995A01919918C91948880591CA
:1039F0000199039009B200B2814204DD0399019854
:103A00009952059A508001218C4462460237082A57
:103A1000D1DD0233052ECBD10026301C0B1C5A0001
:103A20004027BF1869467F5E15A9BC46525E013328
:103A30006044B618082BF2D10721FCF763FB07217D
:103A40002880301C14E0082E18DC0027231C381CAA
:103A50003A1C0433B24205DA596801324018996AB7
:103A60007F18F6E7311CFCF74DFB311C2880381C11
:103A7000FCF748FBA88001E000232360023D503C96
:103A80005DE70193079F013B59007918019F50247E
:103A90007C4317196B4A8E1CD218019B0696013382
:103AA000079E9B00F3180631043308910492099392
:103AB000019E002E00D164E1019E013E0196099E07
:103AC00033683E1C503E0296002B3CDD049E0023D2
:103AD0003A1C33704C3A029E13703368042B01DC9D
:103AE000013333600023043B1A1C143206D0029EBB
:103AF000F2189069D16BD0611164F4E7069E3B1C0B
:103B00000022B25E483B089E1A600022B25E029E0E
:103B10005A6200253468331C281C2A1C0433A24234
:103B200005DA59689E6A4018AD190132F6E7211C82
:103B3000FCF7E8FA069E211C3080281CFCF7E2FA0C
:103B4000089E30800FE102980668052E08D10A9978
:103B5000019A0969023292008A185268002A08DC28
:103B60003A1C4C3A1178012900D0F6E0002B00D025
:103B7000F3E00D9A0198131842331B785BB2002BC7
:103B800000D1E2E0002E04D004990B78002B00D085
:103B9000DBE0049A12780C92002A60D13B1C3C3B7B
:103BA0001D6804331B68ED1A3B1C183B1C6804336A
:103BB0001B68E41A002D00D10125002C00D101243E
:103BC00000230393181C0299CA189168D26A4018FE
:103BD0000399043389180391142BF4D16A42311CE0
:103BE0000E92FCF78FFAAB00C3180593039863425B
:103BF000311C0F93FCF786FAA300029AC018062323
:103C0000013B043A002B08D0059E0E99D661761828
:103C100005960F9E10648019F2E7E817E1172D183A
:103C2000641845404C402C19C82C0DDD3B1C01226A
:103C30004C3B1A7013E0C046740B002000000020BB
:103C4000D8020020480300200B9A3D321178082248
:103C500091433A1C4C3A002900D1012313700C9C6B
:103C6000049E0134E4B23470042C03D13B1C0022C6
:103C70004C3B1A70029EA4003419E36A181CE03011
:103C800008DA3B1C3A1C243B483AE1251B681668BD
:103C90006D4209E03C4A934215DD3B1C3A1C243B33
:103CA000483A1B681668394D391C44390868EA1AC5
:103CB000801B50433A1C203A1168C91AFCF722FABB
:103CC0008619A660E562A368191C9F3108DA3B1CBF
:103CD0003A1C483B243AA0251B6816686D4209E04F
:103CE0002B4A934215DD3B1C3A1C483B243A1B6887
:103CF0001668284D391C20390868EA1A801B504381
:103D00003A1C443A1168C91AFCF7FCF98619E662B4
:103D1000A560A068069E019A3080E36A089E023280
:103D200033800A9E92003369099E9A185268642172
:103D300052003260019E7200079EB2189182962155
:103D4000C90011831B78337005E0049E3A1C0023E0
:103D50004C3A33701370002303E0049E0023337049
:103D60001370029E3360069E503F023E0696089EE8
:103D7000023E0896049E013E0496099E043E099662
:103D800096E61BB0F0BDC0468C1100008D110000FE
:103D9000A7200000A820000008B5034B011C6422E6
:103DA000186805F0A5FC08BDE8000020014B186864
:103DB0007047C046E800002008B5034B011C3422C0
:103DC000586805F095FC08BDE8000020014B986894
:103DD0007047C046E8000020014B18607047C0469D
:103DE000FC0A0020014B18687047C046FC0A0020FE
:103DF000F0B52F488DB006782E4BF6B203961B789F
:103E0000DBB204932C4B1B78DBB205932B4B1B7856
:103E1000DBB206932A4B1F782A4BFFB202971B781E
:103E2000DBB20793284B1B78DBB20893274B1B7838
:103E3000DBB20993264B1D78264BEDB20A951D780F
:103E4000254BEDB20B951D78244BEDB201951C78F6
:103E5000234BE4B21978234BC9B21A78224BD2B261
:103E60001B780078DBB2844665460020AA2D1CD161
:103E7000BE19079F089DBE19099FAE190A9DBE195C
:103E80000B9FAE19019DBE19AE19A419091952183C
:103E9000049E9B18059F15489B19069ADB1900780C
:103EA0009B18DBB2181A43425841C0B20DB0F0BDA6
:103EB00080BF000081BF000082BF000083BF000000
:103EC00084BF000085BF000086BF000087BF0000E0
:103ED00088BF000089BF00008ABF00008BBF0000C0
:103EE0008CBF00008DBF00008EBF00008FBF0000A0
:103EF00080235B040022188059809A801989012050
:103F000001431981C046988980B270470023114A45
:103F100011499A188A4204D21049C95804331160D1
:103F2000F5E70F4B0F4A191D043B934203D20022C1
:103F30001A600B1CF6E70C4B0C4A1360EFF3088277
:103F40000433191D043B9A4203D9094818600B1C1D
:103F5000F7E7704700000020EC020020E09C000022
:103F6000F0020020BD090020740B0020140B00207B
:103F7000CDCDCDCD104BC022920098580F490140B5
:103F800099509958FF2081434020014399509858F7
:103F900080210002000AC905014399500422012131
:103FA0001A60196008211960FC3300215960044B24
:103FB00019690A431A61704700E100E0FFFF00FF42
:103FC00000ED00E070B50C4DA0260424F605291C78
:103FD000221C301C05F08CFB2919221C301905F01D
:103FE00087FB301C291C0831221C083005F080FB9F
:103FF000BFF36F8F70BDC04600990000144B70B5C1
:1040000080261D68F6050424301C291D221C08305A
:1040100005F06EFB301C291C221C08310C3005F009
:1040200067FB301C291C221C0C31103005F060FB92
:10403000301C291C221C1031143005F059FB301C97
:10404000291C1431221C1C3005F052FB70BDC046E7
:10405000EC00002082B0002201920E4A01AB1168F0
:10406000088E0A1C19880005090B000D2E32090361
:1040700012780143198001981103074A02400A434C
:104080000192110C10220A439A70019A034B1A6094
:1040900002B07047EC000020FF0FF0FFA8000040C6
:1040A000384B70B51D6880242B1CE4052C3319781F
:1040B000231CC03318687F2290431140021C042641
:1040C0000A43201C291C1A601831321CD83005F014
:1040D0000FFB201C291C321C1C31DC3005F008FBB6
:1040E000201C291C321C2031E03005F001FB201C73
:1040F000291C321C2431E43005F0FAFA201C291C5A
:10410000321C2831E83005F0F3FA201C291C321C3F
:104110001031143005F0ECFA236B082213432363AB
:10412000236B02221E432663236B13432363236BFB
:104130000122134323632B1DDA7FA16C013A124B3A
:10414000D2B292030B401343A364A26C8023DB031F
:104150001343A364231CD4331968F02292040A4346
:104160001A601968FC2212060A431A6032352A784E
:104170003F23A16C1A40054B12060B401343A36466
:1041800070BDC046EC000020FF3FC0FFFFFFFFC036
:104190008023DB0500221A655A65DA677047000044
:1041A00008B503480021A02205F0E4FA08BDC04686
:1041B00000800140054B8022196812030A431A60EF
:1041C0001968034A0A401A607047C046B4000040AC
:1041D000FFFFF7FF08B5164B164A19680A401A6028
:1041E0001968154A0A401A6019688022D2020A43E7
:1041F0001A601968114A0A408021C9010A431A60ED
:104200001968802252010A431A6019680C4A0A4050
:104210001A6019680B4A0A40802189000A431A6013
:104220001968094A0A401A60FFF7C4FF08BDC04672
:10423000B4000040FFFFF7FFFFFFFDFFFF1FFEFF81
:10424000FFF7FFFFFFFCFFFFFFFBFFFF8023DB0506
:104250005A6E04218A435A6670478023DB055A6EE2
:1042600004210A435A6670478023DB055B6E0120F8
:104270009B08984370478023DB050202D86B120A23
:10428000000E00061043D8637047000008B50A4BC3
:1042900000221A7000F0B8FD8023DB050202D86B03
:1042A000120A000E00061043D863D96B8022520414
:1042B0000A43DA6308BDC046C409002072B6054B44
:1042C0001B5C002B03D1C04662B630BFF6E762B676
:1042D0007047C046C409002008B50020FFF7EEFF74
:1042E00008BD000072B6044B1B5C002B02D1C04617
:1042F00062B6F7E762B67047C4090020F0B587B030
:1043000003AF7960191CBA609C46039001C1012279
:104310009300FE586446002023689E420DD80D1C71
:104320000192019B043D834205DD2B686B60019B7C
:10433000013B0193F5E7266004E001300E60043490
:104340009042E9DB01320431032AE1D107B0F0BD2C
:10435000F7B5264BCB221B68920099181B78002BCF
:104360002CD1234D234A2E68106801960289561CD1
:10437000B6007642940000960C19009E043BB342AE
:1043800009D02D27BC46019FBC4466463678E758C5
:10439000F740E750F1E7837A2C68581C9A188000A0
:1043A0009200404289180023043B83421CD0221C07
:1043B0002D321278CF58D740CF50F5E7012B13D1CB
:1043C0000C4B1A68131C3C331B78013B0CD314892B
:1043D000907A2018C0188000141C08185B342478C8
:1043E0000568E5400560F0E7F7BDC046F000002035
:1043F000EC000020E8000020F0B580230122DB055E
:104400005A7085B00320FFF759FF6A4B1A680023E2
:10441000D356002B01D000234EE0FCF753FBBC30F9
:104420000378002B00D0BAE02825624C013D03D26E
:1044300000232668191C36E020686F00CE22C319BD
:104440005200995AA626F62276005200985B9B5A93
:104450001A1C01ABFFF752FF2368F620DF19029BFD
:104460004000BB5301998F233952039A9B00FA52A3
:10447000DBE7514DCE27F0187F005A19C5192D885A
:10448000520015608F27A325AD00BF004219C01947
:1044900000881288051E954200DA151C904200DD46
:1044A000101C281A0918023B181C5230E1D122684E
:1044B000FC239B00D1506AE0023B1F1C523766D0A0
:1044C000D0183D4D9D30FF305919008849000860D3
:1044D000F2E72822161C6643364F76193868A43650
:1044E000760081198888A11C514349193B68A43181
:1044F00049005918231D5A4352193B68A4325200EF
:104500009A188988928801ABFFF7F8FE3B68029FF2
:104510009E19B7806900019A5B18002C43D1F621DF
:1045200049005A5203998F2292009952013DD0D2EC
:10453000002C35D11F49214A0B680F1C4E33A62091
:104540004000CE2519186D000888591909881C4D9E
:1045500041184910116000260521502048431818C1
:104560004D30FF300088864200DA061C854200DDAF
:10457000051C01390129F0D11249751B043A64194F
:10458000023B8A42DBD13A68FC239B00D450094BA2
:1045900000201B68185601F0D3FB05B0F0BD0224C3
:1045A000013C2825C2E7A32189005A520399B7226A
:1045B000BAE7C046F000002050C000209C800140B7
:1045C000FFFFFF7FFC7F014008B5FFF715FFFFF7F6
:1045D000BFFE08BD8023DB051879C0B27047802379
:1045E000DB051B79DBB2834208D001DA013300E03E
:1045F000013B8021DAB2C9050A71F4E77047000077
:1046000073B51E4B04221C688023211CDB051C484B
:104610001B7905F06DF82478FFF7EAFB194D0028A7
:1046200011D0194B194A1B7812782E6852B25BB21E
:104630000092201CC821D42201F0AAFE2B68F06150
:10464000DB69E41801E02B68D861002C01DA002452
:1046500002E0FF2C00DDFF242B68E0B29C61FFF735
:10466000BEFF8023DB055968094A0A405A60094B9E
:10467000094A19680A401A6073BDC046EC00002060
:1046800004000040F000002081BF000082BF000055
:10469000FFBFFFFFB4000040FFFFEFFF024B1B68AE
:1046A0002C3318787047C046EC000020024B1B6882
:1046B0002E3318787047C046EC000020024B1B6870
:1046C0002D3318787047C046EC00002008B500F084
:1046D000E7FBFFF793FCFFF7BDFCFFF7E1FC08BD2C
:1046E0000002064B000A0138002258609A60052239
:1046F0001A60C0461A68D103FCD5704710E000E08C
:10470000044B054900221A6059609A6005221A601C
:104710007047C04610E000E0FFFFFF0010B58022A8
:10472000D20554680F21E40D0C400823012C04D05D
:104730005468E40D21405B1ADBB21C1C094B127952
:104740001B684443D969EB23891AFF315943064B4F
:104750000648C918FBF7D6FCC1B2201CFBF7D2FCF7
:1047600010BDC046F00000203542000040420F005E
:10477000014B00221A60704710E000E030B50E4D8A
:104780000E48AB6885B0C01A0193FFF7C7FF02A9B6
:10479000012300240B704B708B7004230190CB70AD
:1047A000201C6F2301AA8C800B7101F037FD01984A
:1047B0002C6005B030BDC04610E000E0FFFFFF00F8
:1047C000F0B5294D89B029482C6800F045FBFFF76A
:1047D00087FF0026264FBC4222D280373B1B202772
:1047E000832B00DC9F1002A9FAB2012300204A703B
:1047F0008A70BF10221C0B70CB70888001F00EFDF8
:10480000231C3A1C013A08D3002E04D11949186818
:10481000884200D01E1C0433F4E7BF00E419D9E736
:104820002B6804A9F31A0025019304230124CB70FB
:10483000281CA72301AA8D800C704C708C700B7102
:10484000843701F0EBFC06A90420C870A823BE1B26
:10485000281C01AA8D8001960C704C708C700B7115
:1048600001F0DCFC09B0F0BD140B0020801A06003A
:1048700080130020CDCDCDCD00487047C0810140D0
:10488000024B1868CB239B00C0187047F000002033
:10489000044B1B681889044BCA301B688000181829
:1048A00004307047E8000020F0000020054B1B6832
:1048B00018899B7AC018044BCA301B6880001818EE
:1048C00004307047E8000020F00000208023DB0562
:1048D000996C802212060A439A649A6C1A439A646D
:1048E0000A4B5A1CFF32002102C39342FBD1084AF3
:1048F0009342F6D18023DB059A6C520052089A64E9
:10490000996C044A0A409A647047C046000002400D
:1049100000040240FFFFFFBF08B58023DB051A6BD0
:1049200010210A431A63FFF7D1FF08BD10B5802399
:10493000DB051A1CB43211680F20814307200143A4
:10494000BC3311601A686421120C12040A431A6005
:10495000FFF756FEFFF73EFCFFF734FBFFF74EFB79
:10496000FFF778FBFFF79CFBFFF712FCFFF7D4FF84
:1049700000F096FA041CFFF7FDFA62B6201C10BD89
:10498000F0B58BB00590B14FB14C002800D089E054
:10499000B04B1B681A1C92321278002A03D1BC3328
:1049A0001B78002B03D03B680622FC3302E03B68F7
:1049B0000322FC339A64A84B04221E68A748311CCA
:1049C000183104F095FE311C1C310422A44804F077
:1049D0008FFE311C20310422A24804F089FE311CD4
:1049E00024310422A04804F083FE311C2831042223
:1049F0009E4804F07DFE331C2C3319789C4B7F229B
:104A0000186811409043021C0A4380251A60ED0586
:104A1000AA6C984B1340AB64AB6C3F229343AB64DE
:104A2000A96C954B0B40AB64944B308E1968000514
:104A3000090B000D090301431960311C2E31087860
:104A40008F490003029018683236014002980143F2
:104A500019603378A96C1A4013068A4A08A80A40DC
:104A60001A43AA643B6822689988120B0905090D4C
:104A700012030A432260DA789B780F21D21A0A4087
:104A8000814B296B52010B40804913432B63082251
:104A90000C3104F02DFE7E4B00221B6804937D4BED
:104AA0001E68CDE03F68059D3B1CFC3301229A64E3
:104AB000954200D052E1764B04221D686748291CBC
:104AC000453104F015FE291C49310422644804F0E4
:104AD0000FFE291C4D310422624804F009FE291CF6
:104AE00051310422604804F003FE291C5531042290
:104AF0005E4804F0FDFD2B1C5A3319785C4B7F2275
:104B0000186811409043021C0A4380261A60F6057B
:104B1000B26C584B1340B364B36C3F229343B364FD
:104B2000B16C554B0B40B3642B1C5E331888534B50
:104B300000051968000D090B090301431960291CC0
:104B40005C3108784E4900030290186801400298D1
:104B5000014319602B1C60331B78B16C1A4013069B
:104B6000484A0A401A43B26423683A891B0B12056B
:104B7000120D1B0313432360BB79FA790F21D21A5C
:104B80000A40414B316B52010B4013433363414B9D
:104B900002951968404B8C461868D6E0049FBB18F4
:104BA0003D3319783D4B490058184078CB5C029052
:104BB000029D0120A8403A4FC0B21B01DB190690AC
:104BC000596820250909AD186F460F200840E95D96
:104BD000079003204843B16A0127081801784578F7
:104BE000C9096D000D4381780078394049020D43B1
:104BF000029901950431B940FD40CF5A40067F0A21
:104C00007F023D43CD52CF5A000CFF05FF0D3843C4
:104C1000C852069F0799019DB9430120029F054094
:104C2000BD402943C9B20F25081CA94200D9281C40
:104C300005405868F0212D0188432843586001320F
:104C4000049B3C331B789A42A8DB87E0F0000020ED
:104C5000D400004000000020EC000020D8000040FC
:104C6000DC000040E0000040E4000040E8000040BC
:104C7000C0000040FFDFFFFF3FF0FFFFA800004043
:104C8000FF0FF0FFFFFFFFC01FFEFFFF00990000B6
:104C9000E800002004000020D80200201499000041
:104CA00000400040029B3C331978344B49005E18A9
:104CB0007678CB5C0496049F0126BE403049F6B25C
:104CC0001B015B1806965E680F2736093740079769
:104CD000C6680769F1198A18032151436246926A2E
:104CE000012751180A784E78D209760016438A783F
:104CF00009783A4052021643049A00960432BA40A8
:104D0000FE400196D65A019F760A76023743D75263
:104D1000D75A4906FF05FF0D090C3943D152069FAA
:104D2000079A009EBA430121049F0E40BE401643DD
:104D3000F2B20F26111CB24200D9311C31405E681C
:104D4000F022090196433143596002992B1C4A1BFA
:104D5000013102913C331B789A42A3DB094B0122BB
:104D60001B685A702168084A0A40802149010A4399
:104D70002260059D1D700BB0F0BDC0461499000067
:104D800000400040F0000020FFCFFFFF08B5FFF714
:104D9000F7FD094B0022DA70084B10201B68FC332A
:104DA000DA648023DB051968814319605A701A6838
:104DB00001210A431A6008BDC4090020F000002048
:104DC00008B5FFF7E3FFFFF7FFFB08BD10B5041CB4
:104DD000FFF796FC201CFFF7D9FF80230122DB059B
:104DE0005A700320FFF77EFAFFF7C8FC10BD08B524
:104DF000FFF7CCFFFFF700FB08BD8023DB05986CB5
:104E00008004C00F7047000038B58023DB05197996
:104E1000051C58680F22C00DC9B210400824012893
:104E200004D05B68DB0D1A40A41AE4B2FF23591AC0
:104E3000EB235943064B0748C918FBF763F9054BA9
:104E4000211C5843FBF75EF9291CFBF75BF938BDC1
:104E50003542000040420F0038B58023DB05197948
:104E6000051C58680F22C00DC9B210400824012843
:104E700004D05B68DB0D1A40A41AE4B2FF23591A70
:104E8000EB235943044B0548C918FBF73BF9211C98
:104E90006843FBF737F938BD3542000040420F0048
:104EA000F0B5002185B0A022834804F063FC834B59
:104EB00000221B680A21188901900198013801908D
:104EC00029D3019C7E4F1819057B6E00F05DBE1939
:104ED0007678223D0296012DEFD9774E0501AD1966
:104EE0006F680F263C1C3440012703943C1C029F32
:104EF000BC40039F3C43344003946C68271CB74379
:104F00003E1C039F37436F60814200DD011C8242DB
:104F1000D3DA021CD1E79C7A0394039F013F0397E5
:104F200024D3039D664F5819363006787600F05D1D
:104F30000296614E0401A4196568AC4666460F25C9
:104F40002E40B446029EBF197E780127B7406646C0
:104F5000374366682F40AE433E436660814200DDC2
:104F6000011C824200DB101C021CD6E7181C3C30DE
:104F700000780290002822D01D1CFF200024029FF0
:104F8000EE1ABE4215DA2E1C3D3636784C4F7600AE
:104F9000F75DA4460397BC4200D2BC46039F664619
:104FA000F4B28446B84200D9BC466646F0B2013538
:104FB000E5E7444D86002D682E81A871EC714148CB
:104FC0008C0000680394848081738170C273C27006
:104FD00009240A21013938D33B4E0F258A191201C1
:104FE00057790E1CAF432E403D1C35435571374E4B
:104FF0007F25032905DC1768AF433D1C2543156059
:105000000BE0271C07290DDC0C372F40029717688F
:10501000AF433D1C029F2F43176015682E4080252B
:10502000AD000CE018372F4002971768AF433D1CC6
:10503000029F2F43176015682E4080256D002E4378
:105040001660013C7F221440C4E7214A039D146886
:105050008021240B24032C4314608478C578C9056F
:105060002D1B0F2635401B4C0E6B6D0134402C431D
:105070000C63146818492140E02464032143116043
:10508000DD7A00210A24002D0ED0013D5A19343258
:1050900016780B4A7600B25C944200DD141C9142F3
:1050A00000DB0A1C111CEEE7A30083818472C1722D
:1050B000012005B0F0BDC04600400040E8000020DF
:1050C00014990000F0000020000400047FFCFFFFA2
:1050D000D40000401FFEFFFFFF3FC0FFF0B5A04D12
:1050E00099B02868694600898024021C4243D31D78
:1050F000DB08DB00C91A00AFE4058D462679FF21E5
:10510000F8626846B86104F035FBFF20FFF7A4FEA3
:10511000FA6A9449D200131C0E33081ADB08F860AF
:10512000DB006846C01A8546F86A6B4680007B62E1
:10513000031C0A33DB087A61DB006A46D21A954603
:1051400000220023BA63FB63386168463862A268B4
:10515000854BF6B21340A3602B681C89013C611C8F
:1051600016D07F4B381C1B6858301B19197B202226
:1051700004F0A0FAB96D60228B00D219D318FA6D31
:10518000283B0121186891400A1C02431A60E5E798
:10519000FF239E1BEB235E43744C3419BE69BC6035
:1051A0000024FE61BC62BE6AFC6AA64200DBC6E067
:1051B00000217A69786A04F0DDFA802400213A69D6
:1051C000386A04F0D7FAE405002323656365BD6BF4
:1051D00064206566FE6B7E63A666FFF73DFEFFF703
:1051E0007FFA5F4BBE6A1B68381C9B19197B5030D5
:1051F0000A31C9B2202204F05DFAB86BF96B7B6DFD
:10520000386479643A6D0121994060260B1CF619C7
:1052100091007118081C203806689E43331C0660F4
:10522000002A04D028390A685340636501E06B40C6
:1052300023657E6B65660A20A666FFF70DFE0126D4
:10524000FFF74EFAA667E667386C7B6B45406566EC
:10525000796C4B40A366FFF753FA3A6C7D6C7B6A1E
:105260007A63434AFC689168A14214DB414A7C6B33
:105270001068526820405C682A40944203D3F0D101
:105280001C688442EDD23C6ADA60B2009860A1509A
:1052900001360833E5E7FFF76BFA8023DB050022D0
:1052A0009A67DA67012E42D0741E786AE400041906
:1052B000013E002E3BD0231C083B1A6821685B6826
:1052C00091436268FD6A9A43B300B964FA64013D90
:1052D0007B63BA6A954228D0214B381C1B68583032
:1052E0005B19197B20220A3104F0E4F9FB6D0122DD
:1052F000B86D9A406021131CC91982008A18183AA7
:1053000012681A420FD07B6B3A6AB968D258154BB3
:1053100019489B1A3B63FAF7F5FE011C386BFAF744
:10532000A3FEF9694855013DD3E7083CC0E7BC6AD4
:10533000FE690134BC62FC6A3619FE6133E7381C31
:105340005830E3B20370437083700023C37003715D
:10535000B9690123437100F0D1FEBD4619B0F0BD1B
:10536000E8000020FFFFFF00FFC3FFFF3542000001
:1053700010E000E09000004040420F007FB5041CA8
:10538000FFF78CF9061CFFF791F9154B051C1B68FC
:105390005B8F5E434643F6112660FFF72EFD002823
:1053A00003D022685543ED092560226867235343E3
:1053B000DB0923601A1C323B02A9636001930023BE
:1053C0008B8001230B704B708B70C83A0423A26052
:1053D000CB700820472301AA0B7100F01FFF7FBD8F
:1053E000E8000020F0B589B0069300240EAB0390CE
:1053F000029105921C57FFF743FA0490002C00D04D
:1054000086E06A4B03211B68039C07931A89531E8D
:105410004B43111CE318013936D3049F88003858D8
:10542000059CA0420DD91E785C789D78F009640037
:1054300004432F1C012007407F023C43029FE41BD2
:105440000FE0069CA0421DD21E785C789D78F00982
:10545000640004432F1C012007407F023C43029F4D
:105460003C19A4B2271C0740FF0101977F273E404B
:10547000019F85433E431E706608640A044025432D
:105480005E709D70033BC6E70798049F817A0320F6
:105490004B1ED3184343039C9200BA18E31803929F
:1054A000013900D27FE0039A88001058059CA04281
:1054B0000DD91E785C789D78F009640004432F1C98
:1054C000012007407F023C43029FE41B0FE0069C43
:1054D000A0421BD21E785C789D78F00964000443DA
:1054E0002F1C012007407F023C43029F3C19A4B2BD
:1054F000271C07407F22FF0116403E431E706608AE
:10550000640A0440854325435E709D70033BC7E7F2
:10551000012C48D1254B1868031C3C331A78013AFA
:1055200041D30189837A049CCB189B1899000959AF
:10553000059FB94211D903214B43039CE3181E7800
:105540005C789D78F10964000C432F1C01210F4009
:105550007F023C43029FE41B13E0069CA142DED283
:1055600003214B43039FFB181E785C789D78F1095B
:1055700064000C432F1C01210F407F023C43029F1B
:105580003C19A4B2271C0F40FF0107977F273E401C
:10559000079F8D433E431E706608640A0C402543F6
:1055A0005E709D70BBE709B0F0BDC046E80000200A
:1055B000F0B585B0061C0C1C151C1F1CFFF760F90C
:1055C0000190002F58D1444B03211B6802931A8984
:1055D000531E4B4391004118F3180391BA4220D057
:1055E0000398B900411A04390968A94205D9197804
:1055F0004806400E0091001B06E0A9420ED2197821
:105600004806400E00912018844661467F200140E4
:105610008C46009981436046014319700137033B72
:10562000DCE7029B0320997A019F4B1ED31843436A
:1056300052189200BA18F61801920023994249D0E4
:10564000019A9800101A04380068A84204D93078EA
:1056500047067F0E3F1B05E0A8420AD23078470676
:105660007F0EE719BC4662467F273A40B843104395
:1056700030700133033EE1E7012F2BD1164B1A683E
:10568000131C3C331B78013B24D31089917A019F72
:105690004118C9188800C059A84208D903204143BD
:1056A00071180878029147067F0E3F1B09E0A84257
:1056B000E9D20320414371180878029147067F0E12
:1056C000E719BC4661467F273940B843029F08432B
:1056D0003870D8E705B0F0BDE8000020F0B589B01B
:1056E0000490002900D094E0854B1B68039318892F
:1056F0000590059A914248DA039A012553181A7BBE
:10570000804B520098184478281CA040C0B2D35C4B
:1057100006907D4E03201B0148439B195E68049A46
:10572000360910180F27027837404678D209AE4064
:105730001643827807972A4052021643221DAA4038
:10574000D75A01967F0AEE407F023E43D652D75A7F
:105750000078FF054006FF0D000C3843D052019839
:10576000069F079A0540BA43A5402A43D2B20F27A5
:10577000101CBA4200D9381C07405868F0223F017B
:105780009043384358600131B3E7039B9A7A013A5A
:1057900000D2B3E0039C059EA31836331978594B09
:1057A000490058184078CB5C0790B1180320484353
:1057B000049F554D381801784678C90976000E4384
:1057C0001B0181785B190125294049020E43079985
:1057D00074080431A940CF5A00787F0A7F023C4305
:1057E000CC52CF5A4006FF05000CFF0D3843C8527B
:1057F00058683540079E0F2100092C1C0840B44012
:105800002043014008015968F024A1430143596035
:10581000BDE7012972D13A4B1B680393039AD11A51
:10582000013203921A1C3C321278914266DA039AD2
:105830003C321478334A640010194078A25C059019
:10584000059F0120051CBD402F4CEDB212010695AD
:10585000121954680F252409254007951E89032530
:1058600001969C7A049F341964186C433C1967783C
:10587000A4788740044064022743059CBF05043494
:105880008440A65AFF0D760A76023743A7529F7AC4
:10589000019EF7197F186F43049EBE5D77063F0C8B
:1058A0000297A75A029EFF05FF0D3E43A652069E91
:1058B000079C9F7AB443A446019CE6197618754369
:1058C000049F6446EE5D7D196978F60981400E43B8
:1058D000A9780F27014049020E43059930408840BE
:1058E0000443E4B2251CBC4200D93D1C2F4055683E
:1058F000F0213F018D433D4355608FE709B0F0BD76
:10590000E80000201499000000400040F0B59BB072
:1059100000AF7861F961141CFEF7B2FFFE69132530
:10592000B860BD61032E01D10825BD61D14B684629
:105930001B681E891A1C997A3C321278B44661445D
:10594000891849000831C908C900401A85466E46C1
:10595000401A3E618546F860002C00D0FAE06246AD
:105960000321013A4A437E6960463D694100B2180D
:105970006E466D1871187D603960A4451FD0FD69B1
:1059800001210D420DD07E686000301A55781678DE
:105990008D40F60935439678023831404902294353
:1059A0000180FD69AD0707D510783E686100711A66
:1059B00040060239400E08800134033ADDE79A7A46
:1059C0000126FC69013A22D3344211D019890324FB
:1059D0008918480061437D694C5D69184D78E40978
:1059E0006D0025438C78344064023E692C43845317
:1059F000FC69A407E4D51989032489184800614388
:105A00007D69FE68495D4906490E8153D8E73442F5
:105A100036D000243C62BC849A792025EA555B7913
:105A2000232221202221CB55C355D35D7F25AB43B3
:105A300002252B43D019037024214123CB55391C57
:105A4000B86920313A6900F0E9FB8A4B28221B68CB
:105A5000BC62BC85D6559A7A2B2029242A26E25589
:105A6000F255C25D7F218A431543C21915701A8908
:105A70003C695200391CA218B869283100F0CEFBED
:105A8000FE6902252E4237D07A4E002433683C63EB
:105A9000BC869A793020C2555B793320312132227D
:105AA000CB55D355C35D7F218B432B43C219137054
:105AB00034204223391CC3553031B869FA6800F0EC
:105AC000ADFB01233821BC63CB553368BC879A7A80
:105AD0003B2039243A26E255F255C25D7F218A43A4
